:020000040800F2
:1000000048110020CD9E00083D5A000877A5000841
:100010003F5A0008435A0008475A000800000000F1
:10002000000000000000000000000000DF9E00084B
:100030004B5A000800000000FFA400089D5900086A
:10004000E79E0008E79E0008E79E0008E79E00087C
:10005000E79E0008E79E0008335F0008455F000840
:10006000575F0008695F00087B5F0008E79E000893
:10007000E79E0008E79E0008E79E0008E79E00084C
:10008000E79E0008E79E0008E79E0008E79E00083C
:10009000E79E0008E79E0008E79E00088D5F0008C5
:1000A000E79E0008E79E0008E79E0008E79E00081C
:1000B000E79E0008E79E0008E79E0008E79E00080C
:1000C000E79E0008E79E0008E79E0008E79E0008FC
:1000D000E79E0008236200083562000847620008B6
:1000E000BB5F0008E79E0008E79E0008E79E000847
:1000F000E79E0008E79E0008E79E0008E79E0008CC
:10010000E79E0008E79E0008E79E0008E79E0008BB
:10011000E79E0008E79E0008E79E0008E79E0008AB
:10012000E79E0008E79E0008E79E0008E79E00089B
:10013000DFF80CD011F0BCFC004800476902000851
:100140004811002070471F480068704770B504468A
:100150000AF0BEF905461B48046028460AF0BCF9BF
:1001600070BD10B517480068401C1649086004F0BF
:1001700004F80446A06C401EA064A06C18B9606C22
:10018000A06404F095FA04F0B0FD10BD014600290A
:1001900002DA4FF0FF3014E04FF47A7291FBF2F282
:1001A0004FF47A7302FB03F01A4691FBF2F302FB61
:1001B00013124FF47A735A4302F2E73292FBF3F2CE
:1001C0001044704700000020002070470020704756
:1001D000002070470020704710B5264C02E02068D0
:1001E0008047241D24488442F9D310BD10B5224C09
:1001F00002E020688047241D20488442F9D310BDC6
:1002000010B50446FFF7F2FF05F0E2FA10BD1CB589
:1002100014200A214FF400630022CDE90010AFF250
:100220001F0117A004F02FF9044624B9C72216496C
:1002300016A002F000FF204604F0A9F81CBD10B57E
:100240000AF046F905F0B4FB02F020FE04F02DFEA2
:1002500003F0F1FDFFF7DBFF04F033FE00F059FB84
:1002600003F02FFE002010BD10B5FFF7E8FF0020BF
:1002700010BD0000D8510108E8510108F8510108EB
:100280006D61696E00000000FA280108746964203D
:10029000213D2052545F4E554C4C00002DE9F04159
:1002A000064603F06AFF08B103F0D1FE092003F00F
:1002B000CBFB044624B97C22F549F6A002F0BBFE34
:1002C000656810E0A5F10C0708223146384602F0B7
:1002D000F4FA38B903F051FF08B103F0C6FE38460E
:1002E000BDE8F0812D68201D8542EBD103F045FF6C
:1002F00008B103F0BAFE0020F2E770B504460D46DF
:10030000164614B94FF0FF3070BD2846FFF7C6FF00
:1003100010B14FF0FF30F7E72A460921204603F0DD
:10032000A5FBE6820020A076208300BFECE710B595
:10033000044624B95222DD49DDA002F07CFE2046AD
:1003400003F081FC092804D05322D849DCA002F034
:1003500072FE204603F066FC20B95422D349E7A080
:1003600002F069FE204603F0C3FB002010BD002010
:1003700070472DE9F04106460C464027E01C20F06E
:1003800003042744384602F09FFF05462DB1402262
:100390000021284602F0A3F92E752846BDE8F08119
:1003A00010B5044624B9BA22DE49C1A002F043FECA
:1003B000204603F048FC092804D0BB22D949C0A03C
:1003C00002F039FE204603F02DFC20B1BC22D549B5
:1003D000D5A002F030FE204603F08AFB204603F051
:1003E00078F810BD70B50446002524B9D122DB4948
:1003F000AFA002F020FE606A90B1A07D00F0100076
:1004000070B92046616A884705462DB12A462146C3
:10041000D3A002F00BFD03E0E08A40F01000E08280
:10042000284670BD70B504460E46002524B9F42256
:10043000D9499FA002F0FFFD204603F004FC0928E3
:1004400004D0F522D4499EA002F0F5FDA07D00F075
:10045000100088B9606A58B12046616A884705462D
:1004600035B12A462146BEA002F0E0FC284670BD08
:10047000E08A40F01000E082A07D00F0080030B17A
:10048000207E00F0080010B16FF00600EFE7A06AD0
:1004900028B131462046A26A9047054603E040F65F
:1004A0000F70304020830DB1A81D70B9208B40F033
:1004B00008002083A07E401CA076A07E28B940F2D0
:1004C0002312B549B5A002F0B6FD2846CFE770B5B6
:1004D000044600252CB940F23512B54974A002F04B
:1004E000AAFD204603F0AFFB092805D04FF49B720C
:1004F000AF4973A002F09FFDA07E10B94FF0FF300E
:1005000070BDA07E401EA076A07E08B10020F7E757
:10051000E06A18B12046E16A884705460DB1A81D7A
:1005200008B9002020832846EAE72DE9F041044677
:100530000D4616461F462CB940F25F129D495CA03D
:1005400002F079FD204603F07EFB092805D04FF428
:10055000B07298495AA002F06EFDA07E30B94FF0FB
:10056000FF3002F09BF80020BDE8F081206B38B12D
:100570003B46324629462046D4F830C0E047F3E7F0
:100580006FF0050002F08AF80020EDE72DE9F04158
:1005900004460D4616461F462CB94FF4C3728649D1
:1005A00043A002F048FD204603F04DFB092805D08A
:1005B00040F28712804942A002F03DFDA07E30B992
:1005C0004FF0FF3002F06AF80020BDE8F081606B68
:1005D00038B13B46324629462046D4F834C0E0477D
:1005E000F3E76FF0050002F059F80020EDE770B571
:1005F00004460D4616462CB940F2A7126F492CA0AE
:1006000002F019FD204603F01EFB092805D04FF427
:10061000D4726A492AA002F00EFDA06B28B13246BE
:1006200029462046A36B984770BD6FF00500FBE795
:1006300070B504460D462CB940F2C11260491CA0A9
:1006400002F0F9FC204603F0FEFA092805D04FF429
:10065000E1725B491AA002F0EEFCE561002070BD7A
:1006600070B504460D462CB940F2D712554910A07A
:1006700002F0E1FC204603F0E6FA092805D04FF429
:10068000EC7250490EA002F0D6FC2562002070BD2D
:1006900023290108696E666F726D6174696F6E203F
:1006A000213D2052545F4E554C4C00000E2901084C
:1006B00064657620213D2052545F4E554C4C00001D
:1006C00072745F6F626A6563745F6765745F747983
:1006D000706528266465762D3E706172656E74299A
:1006E000203D3D2052545F4F626A6563745F436CE6
:1006F0006173735F446576696365000072745F6F50
:10070000626A6563745F69735F73797374656D6F33
:10071000626A65637428266465762D3E7061726531
:100720006E7429003229010872745F6F626A656312
:10073000745F69735F73797374656D6F626A656303
:100740007428266465762D3E706172656E7429206A
:100750003D3D2052545F46414C5345004429010819
:10076000546F20696E697469616C697A652064658B
:10077000766963653A2573206661696C65642E202D
:10078000546865206572726F7220636F64652069BA
:10079000732025640A000000532901086465762D42
:1007A0003E7265665F636F756E7420213D20300078
:1007B000622901087229010881290108912901088B
:1007C000A3290108BD2901082DE9F04105466FF074
:1007D000020709F07DFE0646002409E0664850F84D
:1007E000240020B9644840F82450002702E0641C2B
:1007F000042CF3D300BF304609F06EFE3846BDE846
:10080000F0812DE9F04105466FF0050709F060FE23
:10081000064600240BE0584850F82400A84205D1B1
:100820000020554941F82400002702E0641C042CF4
:10083000F1D300BF304609F04FFE3846BDE8F081E5
:1008400070B54EE000BF09F043FE064601F004FF1C
:1008500040B14A494AA002F0E9FAA022474952A011
:1008600002F0E9FB304609F037FE00BF09F030FE28
:10087000054600F078F830B34C480068A0F1140445
:1008800004F11400D0E900215160D0E90012116098
:100890004060006000BF03F0DAFBA06F10B120469B
:1008A000A16F8847204603F0BDF9012808D12046F2
:1008B00003F01EF903F0D9FB284609F00DFE70BDC8
:1008C00003F0D3FB03E0284609F006FEF7E72846CD
:1008D00009F002FEA06A02F0FCFD204603F076F962
:1008E00000BF00F040F80028ACD100BFE7E70FE000
:1008F000002408E0204850F8240018B11E4951F89F
:1009000024008047641C042CF4D3FFF799FF00BF38
:10091000EEE710B586B000241CE0224624A104A80E
:1009200002F0E5FA20211F22CB00234800EB04202F
:10093000CDE9013203910090204901EBC41000235E
:100940001F4A04A903F0C1FC1C4901EBC41003F0C9
:100950001EFD641C002CE0D006B010BD002117481D
:1009600000EBC110704711490868884201D001208E
:1009700070470020FCE7000034050020D72901085B
:1009800046756E6374696F6E5B25735D2073686175
:100990006C6C206E6F7420626520757365642069CD
:1009A0006E204953520A0000300000000001002070
:1009B0007469646C6525640034040020B40300206D
:1009C000EF0800084268116042684A6041600860B0
:1009D00070472DE9F04105460C469046204603F04D
:1009E0006CFEB8F1000F03D0B8F1010F23D105E080
:1009F00004F114012846FFF7E5FF1CE02E680FE024
:100A0000A6F1140794F8350097F83510884206DAF5
:100A100004F1140107F11400FFF7D4FF02E0366877
:100A2000AE42EDD100BFAE4204D104F1140128461C
:100A3000FFF7C8FF00BF00BF0020BDE8F08170B520
:100A400005460EE009F044FD06462868A0F11404AE
:100A50004FF0FF302063204603F05CFC304609F085
:100A60003BFD284601F09BFD0028EBD0002070BD27
:100A70002DE9F04104460E4615461F4624B9CB2207
:100A8000F649F7A002F0D7FAB5F5803F04D3CC229F
:100A9000F249F7A002F0CFFA32460221204602F0D6
:100AA000E5FF204601F083FDA58367720020BDE8C5
:100AB000F08110B5044624B9EA22F249E8A002F018
:100AC000BAFA204603F0BFF8022804D0EB22ED4921
:100AD000ED4802F0B0FA204603F0A4F820B9EC2269
:100AE000E849EAA002F0A7FA04F11400FFF7A7FF13
:100AF000204602F0FDFF002010BD2DE9F041064622
:100B00000D46174600BF09F0E3FC804601F0A4FD46
:100B100048B1EA49EAA002F089F94FF48472E74942
:100B2000F1A002F088FA404609F0D6FC00BFB5F506
:100B3000803F05D340F20912E049CDA002F07BFAD4
:100B40003146022002F0F3FF044614B92046BDE806
:100B5000F081204601F02BFDA58367722046F6E761
:100B600070B5044600BF09F0B3FC054601F074FD02
:100B700048B1DE49D2A002F059F94FF49472DB4932
:100B8000D9A002F058FA284609F0A6FC00BF2CB9FB
:100B900040F22B12D549B2A002F04DFA204603F0E4
:100BA00052F8022805D04FF49672D049B64802F0A8
:100BB00042FA204603F036F828B140F22D12CB4914
:100BC000CBA002F038FA04F11400FFF738FF2046FA
:100BD00002F0FCFF002070BD2DE9F34105462DB960
:100BE00040F24912D1499EA002F025FA284603F0AE
:100BF0002AF8022805D04FF4A572CC49A24802F089
:100C00001AFA00BFCA48006818B12846C8490968DE
:100C1000884700BF09F05CFC064600BF00BFA88BF8
:100C2000002806DDA88B401EA883304609F054FC3E
:100C300057E0019830B9304609F04EFC6FF00100E2
:100C4000BDE8FC8100BF09F043FC074603F095FABC
:100C500048B9B649B7A002F0E9F84FF4B572B34904
:100C6000A1A002F0E8F900BF09F032FC804601F0D3
:100C7000F3FC48B1AD4992A002F0D8F84FF4B57238
:100C8000AA4999A002F0D7F9404609F025FC00BF17
:100C9000384609F021FC00BF03F06FFA044600203B
:100CA000206300BF00BF6A7A214605F11400FFF7F8
:100CB00090FE019800280BDD00BF00BF01AA0021B3
:100CC00004F14C0003F0E0FF04F14C0003F00CFFD2
:100CD000304609F001FC03F041F9206B08B1206BAC
:100CE000AEE700BFA148006818B128469F490968CF
:100CF000884700BF0020A3E710B504460021204626
:100D0000FFF76AFF10BD70B504462CB94FF4DB72D3
:100D1000974953A002F08FF9204602F094FF022871
:100D200005D040F2B7129249574802F084F900BF4B
:100D30009048006818B120468E490968884700BF6E
:100D4000002509F0C5FB064600BF00BF04F11400F2
:100D500001F025FC28B904F1140001F030FC012554
:100D600002E0A08B401CA083304609F0B5FB012DAA
:100D700001D103F0F3F8002070BD2DE9F0410446E5
:100D80000E4615462CB940F2E7127B4934A002F01A
:100D900052F9204602F057FF022805D04FF4F472B2
:100DA0007549394802F047F9012E10D12F4609F054
:100DB0008FFB804604F11400FFF741FEA7834046F5
:100DC00009F08AFB03F0CAF80020BDE8F0814FF07B
:100DD000FF30FAE770B504460D4616462CB94FF4BD
:100DE0000572664966A002F026F92A4603212046CC
:100DF00002F03CFE204601F0DAFB0120A083002037
:100E00002062FF20A0770020E077667270BD10B5E9
:100E100004462CB94FF40D725E4959A002F00BF94B
:100E2000204602F010FF032805D040F23522594930
:100E3000594802F000F9204602F0F4FE28B940F2C9
:100E40003622544955A002F0F6F804F11400FFF7D9
:100E5000F6FD204602F04CFE002010BDED290108F1
:100E600073656D20213D2052545F4E554C4C00005F
:100E700076616C7565203C203078313030303055EB
:100E800000000000F92901081045010872745F6F25
:100E9000626A6563745F69735F73797374656D6F9C
:100EA000626A656374282673656D2D3E7061726594
:100EB0006E742E706172656E74290000072A010835
:100EC00046756E6374696F6E5B25735D2073686130
:100ED0006C6C206E6F742062652075736564206988
:100EE0006E204953520A000030000000152A010804
:100EF00072745F6F626A6563745F69735F7379733D
:100F000074656D6F626A656374282673656D2D3E26
:100F1000706172656E742E706172656E7429203D09
:100F20003D2052545F46414C53450000232A01089E
:100F3000E400002046756E6374696F6E5B25735D17
:100F4000207368616C6C206E6F742062652075730D
:100F50006564206265666F72652073636865647599
:100F60006C65722073746172740A0000E8000020DE
:100F70002F2A0108EC0000203E2A01084D2A010812
:100F80006D7574657820213D2052545F4E554C4C50
:100F9000000000005B2A0108E445010872745F6FDD
:100FA000626A6563745F69735F73797374656D6F8B
:100FB000626A65637428266D757465782D3E70616C
:100FC00072656E742E706172656E74290000000087
:100FD0002DE9F04105460E4600BF09F079FA0746B3
:100FE00001F03AFB58B1F649AFF22C1001F01EFFA8
:100FF00040F25122F249AFF2101002F01CF83846CC
:1010000009F06AFA00BF2946032002F090FD044669
:1010100014B92046BDE8F081204601F0C8FA01204D
:10102000A08300202062FF20A0770020E077667276
:101030002046EFE770B5044600BF09F049FA0546BF
:1010400001F00AFB58B1DF49AFF28C1001F0EEFE5F
:1010500040F27222DB49AFF2701001F0ECFF28463B
:1010600009F03AFA00BF34B940F27522D549AFF21F
:10107000F00001F0E0FF204602F0E5FD032805D076
:1010800040F27622CF49D04801F0D5FF204602F049
:10109000C9FD28B140F27722CA49CCA001F0CBFFAC
:1010A00004F11400FFF7CBFC204602F08FFD002076
:1010B00070BD2DE9F341044600BF09F009FA074667
:1010C00003F05BF858B9D149AFF2981001F0AEFEC9
:1010D00040F29322CD49AFF2F01001F0ACFF00BF17
:1010E00009F0F6F9804601F0B7FA58B1C749AFF2F6
:1010F000302001F09BFE40F29322C449AFF2182049
:1011000001F099FF404609F0E7F900BF384609F0C1
:10111000E3F900BF34B940F29622BC49AFF2A01007
:1011200001F089FF204602F08EFD032805D040F231
:101130009722B649A44801F07EFF03F01EF8054649
:1011400009F0C6F9064600BFB148006818B120464C
:10115000AF490968884700BF00BF00BF002028636F
:10116000206AA84203D1E07F401CE0774EE000BF38
:10117000A08B00280ADDA08B401EA083256295F875
:101180003500A077E07F401CE0773FE0019848B948
:101190006FF001002863304609F09EF96FF00100FE
:1011A000BDE8FC8100BF00BF95F83500216A91F8C9
:1011B0003510884205DA05F135020221206A03F074
:1011C0000FFB627A294604F11400FFF702FC019834
:1011D00000280BDD00BF00BF01AA002105F14C0073
:1011E00003F052FD05F14C0003F07EFC304609F09F
:1011F00073F902F0B3FE286B28B1286B093000B9EF
:10120000B6E7286BCCE709F063F90646304609F0EB
:1012100063F900BF7F48006818B120467D4909681E
:10122000884700BF0020BBE72DE9F047044634B9EA
:101230004FF447727849AFF2B82001F0FCFE204627
:1012400002F001FD032805D040F21D3272495E48CC
:1012500001F0F1FE002600BF09F03AF9804602F0E5
:101260008CFF58B96C49AFF2343001F0DFFD40F229
:1012700022326949AFF2903001F0DDFE00BF09F083
:1012800027F9814601F0E8F958B16349AFF2D0304F
:1012900001F0CCFD40F222325F49AFF2B43001F0F0
:1012A000CAFE484609F018F900BF404609F014F993
:1012B00000BF02F062FF054609F00AF9074600BFC9
:1012C00000BF00BF5548006818B12046534909685F
:1012D000884700BF206AA84209D04FF0FF3028633A
:1012E000384609F0F9F84FF0FF30BDE8F087E07FAD
:1012F000401EE077E07F08BBA07F216A91F835109F
:10130000884205D004F11E020221206A03F068FA27
:1013100004F1140001F043F988B96069A0F11405E3
:1013200000BF00BF256295F83500A077E07F401C24
:10133000E07704F1140001F042F9012606E0A08BE9
:10134000401CA08300202062FF20A077384609F0CF
:10135000C3F8012E01D102F001FE0020C5E770B5EF
:1013600004460D46164634B940F27F322C49AFF29E
:10137000F03001F060FE204602F065FC032805D045
:101380004FF460722649104801F055FE4FF0FF30CF
:1013900070BD70B504460D4616462CB940F2953224
:1013A000204921A001F047FE2A460421204602F0F0
:1013B0005DFB6672204601F0FAF80020E06170BD26
:1013C0006B2A01087B2A0108E445010872745F6FEB
:1013D000626A6563745F69735F73797374656D6F57
:1013E000626A65637428266D757465782D3E706138
:1013F00072656E742E706172656E7429203D3D2099
:1014000052545F46414C5345000000008B2A0108AE
:10141000E4000020E8000020992A0108EC000020E8
:10142000AA2A0108BB2A01086576656E7420213D51
:101430002052545F4E554C4C0000000010B504463D
:1014400034B940F2B132FB49AFF2240001F0F3FDB0
:10145000204602F0F8FB042805D040F2B232F549EC
:10146000F54801F0E8FD204602F0DCFB28B940F227
:10147000B332F049F1A001F0DEFD04F11400FFF7F2
:10148000DEFA204602F034FB002010BD2DE9F041C9
:1014900005460E4600BF09F01BF8074601F0DCF8D0
:1014A00058B1F349AFF2E85001F0C0FC4FF4737249
:1014B000EF49AFF2CC5001F0BEFD384609F00CF810
:1014C00000BF2946042002F032FB044614B920462E
:1014D000BDE8F0816672204601F069F80020E06105
:1014E0002046F5E770B5044634B940F2EA32E149E6
:1014F000AFF2CC0001F09FFD204602F0A4FB0428CF
:1015000005D040F2EB32DB49CB4801F094FD204698
:1015100002F088FB28B14FF47B72D649D6A001F0C7
:101520008AFD00BF08F0D4FF054601F095F858B1D8
:10153000D049AFF2746001F079FC40F2EE32CD494F
:10154000AFF25C6001F077FD284608F0C5FF00BFF0
:1015500004F11400FFF773FA204602F037FB002075
:1015600070BD2DE9F04704460F4634B940F20D42F4
:10157000D149AFF24C1001F05EFD204602F063FB52
:10158000042805D040F20E42CB49AB4801F053FD90
:101590001FB94FF0FF30BDE8F0874FF0000808F0AA
:1015A00097FF8246E0693843E06100BFC3480068A6
:1015B00018B12046C1490968884700BF04F11400EA
:1015C00000F0EDFFC0BB666932E0A6F114054FF0F4
:1015D000FF3995F8400000F0010040B1E86BE16987
:1015E0000840E96B884211D14FF000090EE095F8F0
:1015F000400000F0020048B1E86BE169084028B102
:10160000E86BE1690840E8634FF000093668B9F11A
:10161000000F0DD195F8400000F0040018B1E0690A
:10162000E96B8843E061284602F074FE4FF0010840
:1016300004F114008642C8D1504608F04DFFB8F1BD
:10164000010F01D102F08AFC0020A4E72DE9FF4F31
:1016500081B005460E461746DDF8388000BF08F019
:1016600037FF009002F089FD58B99549AFF23C7000
:1016700001F0DCFB4FF48E629149AFF2947001F0FF
:10168000DAFC00BF08F024FF834600F0E5FF58B104
:101690008B49AFF2D47001F0C9FB4FF48E628849D8
:1016A000AFF2BC7001F0C7FC584608F015FF00BF50
:1016B000009808F011FF00BF35B940F2734280492D
:1016C000AFF29C2001F0B7FC284602F0BCFA0428D7
:1016D00005D040F274427A49574801F0ACFC26B973
:1016E0004FF0FF3005B0BDE8F08F4FF0FF3902F04A
:1016F00044FD04460021216300BF7248006818B110
:10170000284670490968884700BF08F0E1FE824614
:1017100007F0010030B1E8693040B04212D14FF01B
:1017200000090FE007F0020028B1E869304048B135
:101730004FF0000906E040F293426149AFF65800CD
:1017400001F079FCB9F1000F0DD1B8F1000F03D011
:10175000E8693040C8F8000007F0040088B3E86981
:10176000B043E8612DE0049818B96FF001002063E0
:1017700027E0E66384F840706A7A214605F1140098
:10178000FFF727F90498002809DD04AA002104F1D5
:101790004C0003F079FA04F14C0003F0A5F950462F
:1017A00008F09AFE02F0DAFB206B08B1206B99E793
:1017B00008F08EFE8246B8F1000F02D0E06BC8F848
:1017C0000000504608F088FE00BF3F48006818B18E
:1017D00028463D490968884700BF206B82E72DE90C
:1017E000F04104460D46174634B940F2E542374908
:1017F000AFF2CC3001F01FFC204602F024FA04289E
:1018000005D040F2E64231490B4801F014FC012DAD
:101810005ED108F05DFE064604F11400FFF70FF9F3
:101820000020E061304608F057FE02F097FB0020F0
:10183000BDE8F081C92A0108A045010872745F6FF4
:10184000626A6563745F69735F73797374656D6FE2
:10185000626A65637428266576656E742D3E7061D4
:1018600072656E742E706172656E742900000000DE
:10187000D92A0108E92A010872745F6F626A6563F8
:10188000745F69735F73797374656D6F626A6563A2
:101890007428266576656E742D3E706172656E746F
:1018A0002E706172656E7429203D3D2052545F4652
:1018B000414C534500000000F92A0108EC000020CB
:1018C000072B0108E4000020E8000020152B010888
:1018D0004FF0FF30BDE8F0812DE9F04104460D46A0
:1018E00016461F46DDF818802CB940F21352FE4907
:1018F000FEA001F0A0FB2A460521204602F0B6F822
:1019000084F80980204600F052FEE661278400201A
:101910006084A084E08404F1280000F03DFE0020F3
:10192000BDE8F08110B504462CB940F23652F349B7
:10193000EEA001F080FB204602F085F9052805D0D5
:1019400040F23752ED49EE4801F075FB204602F0B7
:1019500069F928B94FF4A762E849EAA001F06BFBE6
:1019600004F11400FFF76BF804F12800FFF767F8A3
:10197000204602F0BDF8002010BD2DE9F0410546DB
:101980000E46174600BF08F0A3FD804600F064FE37
:1019900058B1E849AFF6D82001F048FA40F2545265
:1019A000E449AFF6BC2001F046FB404608F094FD48
:1019B00000BF2946052002F0BAF8044614B92046B3
:1019C000BDE8F0816772204600F0F1FD2684218C8D
:1019D000880001F079FCE061E06920B9204602F05E
:1019E000F5F80020ECE700206084A084E08404F196
:1019F000280000F0D1FD2046E2E770B5044600BFA4
:101A000008F066FD054600F027FE58B1CA49AFF65A
:101A1000503001F00BFA40F27F52C749AFF6383030
:101A200001F009FB284608F057FD00BF2CB940F231
:101A30008252C149ADA001F0FEFA204602F003F93E
:101A4000052805D040F28352BB49AD4801F0F3FAB6
:101A5000204602F0E7F828B140F28452B649B7A018
:101A600001F0E9FA04F11400FEF7E9FF04F128009F
:101A7000FEF7E5FFE06901F02CFD204602F0A6F834
:101A8000002070BD2DE9F74F04460F462CB940F2F7
:101A9000AA52B94995A001F0CEFA204602F0D3F837
:101AA000052805D040F2AB52B349954801F0C3FA7E
:101AB000002602F062FB054600BFB048006818B17E
:101AC0002046AE490968884700BF08F001FD8046FE
:101AD000608C218C884208D1029830B9404608F0C9
:101AE000FBFC6FF00200BDE8FE8F69E00020286378
:101AF000029828B9404608F0EFFC6FF00200F2E7C8
:101B000000BF08F0E5FC814602F037FB58B99A495E
:101B1000AFF6E03001F08AF940F2CE529649AFF6C6
:101B2000384001F088FA00BF08F0D2FC824600F08D
:101B300093FD58B19049AFF6784001F077F940F243
:101B4000CE528D49AFF6604001F075FA504608F06C
:101B5000C3FC00BF484608F0BFFC00BF627A2946BC
:101B600004F12800FEF735FF029800280EDDFEF78D
:101B7000EAFA064600BF00BF02AA002105F14C00A8
:101B800003F082F805F14C0002F0AEFF404608F089
:101B9000A3FC02F0E3F9286B08B1286BA3E708F077
:101BA00097FC8046029800280ADDFEF7CCFA861BD7
:101BB0000298801B02900298002801DA002002900F
:101BC000608C218C884291D0A18CE06940F8217012
:101BD000A08C401CA084A08C218C884201DB0020BA
:101BE000A084608C401C608404F1140000F0D7FCD9
:101BF00050B904F1140000F0E2FC404608F06CFC1F
:101C000002F0ACF900206EE7404608F065FC0020C9
:101C100069E770B504460D46002229462046FFF7C5
:101C200031FF70BD2DE9F74F04460F462CB940F245
:101C30003C6253492DA001F0FEF9204602F003F862
:101C4000052805D040F23D624D492D4801F0F3F9D9
:101C5000002602F092FA054600BF4A48006818B113
:101C6000204648490968884700BF08F031FC804693
:101C7000608C40B9029830B9404608F02DFC6FF0F6
:101C80000100BDE8FE8FBDE000202863029830B956
:101C9000404608F021FC6FF001002863F1E700BF27
:101CA00008F016FC814602F068FA58B93449AFF6DC
:101CB0007C5001F0BBF840F262623149AFF6D85077
:101CC00001F0B9F900BF08F003FC824600F0C4FC43
:101CD00040B12B49AFF6186001F0A8F840F26262FB
:101CE000274951E054E00000262B01086D622021B5
:101CF0003D2052545F4E554C4C000000312B0108E2
:101D00002846010872745F6F626A6563745F697365
:101D10005F73797374656D6F626A65637428266D8D
:101D2000622D3E706172656E742E706172656E74A4
:101D3000290000003E2B01084B2B010872745F6FD5
:101D4000626A6563745F69735F73797374656D6FDD
:101D5000626A65637428266D622D3E706172656EDD
:101D6000742E706172656E7429203D3D2052545F5F
:101D700046414C5345000000582B0108EC00002060
:101D8000682B0108E4000020AFF6A46001F053F9CD
:101D9000504608F0A1FB00BF484608F09DFB00BF7D
:101DA000627A294604F11400FEF713FE0298002817
:101DB0000EDDFEF7C8F9064600BF00BF02AA0021EB
:101DC00005F14C0002F060FF05F14C0002F08CFEC2
:101DD000404608F081FB02F0C1F8286B08B1286B7F
:101DE0004FE708F075FB8046029800280ADDFEF7F1
:101DF000AAF9861B0298801B02900298002801DA3B
:101E000000200290608C00283FF43EAFE18CE06936
:101E100050F821003860E08C401CE084E08C218C7C
:101E2000884201DB0020E084608C401E608404F165
:101E3000280000F0B4FB98B904F1280000F0BFFBC3
:101E4000404608F049FB00BFF948006818B1204639
:101E5000F7490968884700BF02F080F8002010E7C2
:101E6000404608F039FB00BFF148006818B1204631
:101E7000EF490968884700BF002002E72DE9F041DB
:101E800004460D46174634B940F2C262E949AFF242
:101E9000A41001F0D0F8204601F0D5FE052805D0A9
:101EA00040F2C362E349E44801F0C5F8012D16D1C0
:101EB00008F00EFB064604F11400FEF7C0FD04F125
:101EC0002800FEF7BCFD00206084A084E08430463A
:101ED00008F002FB02F042F80020BDE8F0814FF06C
:101EE000FF30FAE72DE9F05F04460F469046994629
:101EF000DDE90AAB2CB940F2FF62D049D0A001F075
:101F00009AF83A460621204601F0B0FD84F809B05F
:101F1000204600F04CFBC4F81C8009F1030020F0BF
:101F200003002084208C001DBAFBF0F060840020A8
:101F3000A062E0622063002508E0208C001DE169BA
:101F400005FB0016206B306026636D1C608CA84278
:101F5000F3DC0020A084BDE8F09F10B504462CB946
:101F60004FF4E662BA49B6A001F065F8204601F0E8
:101F70006AFE062805D040F23172B549B54801F035
:101F80005AF8204601F04EFE28B940F23272B049AC
:101F9000B1A001F050F804F11400FEF750FD204606
:101FA00001F0A6FD002010BD70B5044600BF08F08A
:101FB0008FFA054600F050FB48B1B349B34800F032
:101FC00035FF40F28C72B049B1A001F034F82846D8
:101FD00008F082FA00BF2CB940F28F72AA4998A08B
:101FE00001F029F8204601F02EFE062805D04FF416
:101FF000F262A549974801F01EF8204601F012FE52
:1020000028B140F29172A049A2A001F014F804F1A5
:102010001400FEF714FDE06901F05BFA204601F0C0
:10202000D5FD002070BD2DE9F05F0746884691463A
:102030009A4600BF08F04CFA834600F00DFB48B109
:10204000A349924800F0F2FE40F25272A04990A0DB
:1020500000F0F1FF584608F03FFA00BF394606206D
:1020600001F065FD044614B92046BDE8F09F84F8F0
:1020700009A0204600F09BFA08F1030020F00300BD
:102080002084A4F82290218C091D628C01FB02F0AF
:1020900001F01AF9E061E06920B92046FFF784FFFA
:1020A0000020E2E70020A062E0622063002508E053
:1020B000208C001DE16905FB0016206B3060266353
:1020C0006D1C608CA842F3DC0020A0842046CCE785
:1020D0002DE9F04104460F4616462CB940F2B17284
:1020E0007C4957A000F0A7FF204601F0ACFD062870
:1020F00005D040F2B2727749564800F09CFF2FB9E4
:1021000040F2B372734974A000F095FF2EB940F20B
:10211000B472704975A000F08EFF208CB04203D2DB
:102120004FF0FF30BDE8F08100BF7348006818B180
:10213000204671490968884700BF08F0C9F9804600
:10214000256B2DB9404608F0C7F96FF00200E9E7AA
:1021500028682063404608F0BFF900202860324616
:102160003946281D00F0DFFA08F0B2F98046E06A2F
:1021700008B1E06A0560E562A06A00B9A562A08CBA
:10218000401CA08404F1140000F009FA50B904F1D5
:10219000140000F014FA404608F09EF901F0DEFE4B
:1021A0000020BFE7404608F097F90020BAE72DE984
:1021B000F04104460F4616462CB940F60B024F4933
:1021C0001FA000F038FF204601F03DFD062805D095
:1021D00040F60C0249491F4800F02DFF2FB940F688
:1021E0000D0246493CA000F026FF2EB940F60E0233
:1021F00042493EA000F01FFF208CB04203D24FF0B6
:10220000FF30BDE8F08100BF3B48006818B12046B0
:1022100039490968884700BF08F05AF98046256B9C
:102220002DB9404608F058F96FF00200E9E767E081
:10223000E8000020732B010828460108812B0108C3
:102240006D7120213D2052545F4E554C4C000000D2
:102250008C2B01085845010872745F6F626A6563D0
:10226000745F69735F73797374656D6F626A6563B8
:102270007428266D712D3E706172656E742E7061CA
:1022800072656E7429000000A62B0108C00E0008BC
:102290003000000072745F6F626A6563745F697317
:1022A0005F73797374656D6F626A65637428266DF8
:1022B000712D3E706172656E742E706172656E7400
:1022C00029203D3D2052545F46414C5345000000BB
:1022D000992B0108B32B010862756666657220218F
:1022E0003D2052545F4E554C4C00000073697A6596
:1022F00020213D2030000000EC000020BE2B010812
:1023000028682063404608F0E7F832463946281D21
:1023100000F009FA08F0DCF88046A06A2860A5629F
:10232000E06A00B9E562A08C401CA08404F11400AE
:1023300000F035F950B904F1140000F040F94046BE
:1023400008F0CAF801F00AFE00205AE7404608F0FB
:10235000C3F8002055E72DE9FF4F81B004460F4632
:10236000904634B940F665029B49AFF22C1000F05C
:1023700062FE204601F067FC062805D040F66602A2
:102380009549964800F057FE37B940F667029249E2
:10239000AFF2BC0000F04FFEB8F1000F06D140F6DE
:1023A00068028D49AFF2BC0000F045FE4FF0000915
:1023B00001F0E3FE054600BF8948006818B12046D9
:1023C00087490968884700BF08F082F88246A08CD8
:1023D00048B9049838B9504608F07EF86FF001000B
:1023E00005B0BDE8F08F6BE000BF08F071F8009019
:1023F00001F0C3FE50B978497A4800F017FD40F665
:102400007E027549AFF2781000F015FE00BF08F0AB
:102410005FF8834600F020F958B16F49714874386D
:1024200000F004FD40F67E026B49AFF29C1000F014
:1024300002FE584608F050F800BF009808F04CF82B
:1024400000BF00202863049830B9504608F044F8D3
:102450006FF001002863C3E7627A294604F1140093
:10246000FEF7B7FA049800280EDDFDF76CFE8146F2
:1024700000BF00BF04AA002105F14C0002F004FCDB
:1024800005F14C0002F030FB504608F025F801F051
:1024900065FD286B08B1286BA2E708F019F88246A1
:1024A000049800280CDDFDF74EFEA0EB0909049806
:1024B000A0EB090004900498002801DA00200490A1
:1024C000A08C002890D0A66A3068A062E06AB04272
:1024D00001D10020E062A08C401EA084504607F08D
:1024E000FBFF208C404501D2208C00E04046024694
:1024F000311D384600F017F907F0EAFF8246206BDD
:1025000030602663504607F0E7FF00BF364800689A
:1025100018B1204634490968884700BF00205FE7AA
:102520002DE9F04104460E46904634B940F6ED02DE
:102530002E49AFF2F42000F07EFD204601F083FB2F
:10254000062805D040F6EE022849244800F073FD25
:10255000012E1ED107F0BCFF074604F11400FEF760
:102560006EFA0AE0A56A2868A062E06AA84201D172
:102570000020E062206B28602563A06A0028F1D16A
:10258000A084384607F0A8FF01F0E8FC0020BDE871
:10259000F0814FF0FF30FAE740600060704701467D
:1025A0000868884201D1012070470020FCE710B57F
:1025B000044604F11400FFF7EFFF002010BD70B5D2
:1025C00004462068A0F1140500BF00BF284601F0B2
:1025D000A1FE002070BD0000CB2B0108584501086A
:1025E000E4000020340F0008E8000020D62B01088A
:1025F0001F49086070471F490860704710B500BF49
:1026000000BF07F065FF04461B480078401C1A49CC
:10261000087000BF1648006810B115480068804770
:1026200000BF204607F058FF10BD10B500BF00BF27
:1026300007F04EFF044610480078401E0E4908700F
:1026400000BF0C48006810B10A480068804700BF0E
:10265000204607F041FF10BD70B507F039FF054671
:1026600005480478284607F037FF204670BD000073
:1026700004000020080000200C00002010B5FFF727
:10268000EBFF10B1FB48006810BD01F076FD044679
:1026900014B9F8480068F7E7206BF5E770B5044611
:1026A000FFF7DAFF10B1F348046070BD01F065FD7B
:1026B000054615B9EF480460F7E72C6300BFF4E75F
:1026C00010B5FFF7C9FF08B1EA4810BD01F055FD8C
:1026D000044614B104F13000F7E7E648F5E7F0B539
:1026E0000C460546E6B2042A15D300F0030797B955
:1026F000014646EA062343EA034304E008C108C151
:1027000008C108C1103A102AF8D201E008C1121F0E
:10271000042AFBD20D4601E005F8016B171EA2F159
:102720000102F9D1F0BD2DE9F0410F4616460446ED
:102730003D463346102B28D305F0030C04F0030864
:102740004CEA080CBCF1000F1FD121462A4610E0CC
:1027500052F804CB41F804CB52F804CB41F804CB37
:1027600052F804CB41F804CB52F804CB41F804CB27
:10277000103B102BECD204E052F804CB41F804CB10
:102780001B1F042BF8D20C46154603E015F801CBAD
:1027900004F801CBB3F1000CA3F10103F6D1BDE8BD
:1027A000F08170B50C46014623468B4210D29D182D
:1027B0008D420DD91144134405E05D1E2B462E7841
:1027C0004D1E29462E70151EA2F10102F5D108E01A
:1027D00003E013F8015B01F8015B151EA2F1010291
:1027E000F7D170BDF0B5034600201C460D4608E049
:1027F00026782F78F61B301E00D004E0641C6D1C78
:10280000521E002AF4D800BFF0BD01460A4600E07F
:10281000521C10780028FBD1501A7047F0B50646BC
:102820000F463846FFF7F1FF05460DB93046F0BDBB
:102830003046FFF7EAFF044609E0641E2A4639469F
:102840003046FFF7CFFF08B93046F0E7761CAC42C0
:10285000F3DA0020EBE730B503460C4600BF13F86F
:10286000011B14F8012B412902DB5A2900DC20311D
:10287000412A02DB5A2A00DC2032914201D1002990
:10288000EDD1881A30BD70B50346A2B118460C468A
:1028900000BF14F8016B00F8016B3EB902E000259F
:1028A00000F8015B551E2A1EF9D102E0551E2A1EB2
:1028B000EFD100BF00BF184670BD30B50346002001
:1028C0000BE011F8015B1C78641B64B2201E02D17E
:1028D00013F8015B05B902E0521E002AF1D100BFD6
:1028E00030BD024601E0521C491C107818B1107826
:1028F0000B789842F7D010780B78C01A70470246D0
:102900000B46114600E0491C087810B1881A98421D
:10291000F9D3881A704770B504462046FFF775FF53
:10292000451C284600F0D0FC06460EB9002070BDBC
:102930002A4621463046FFF7F6FE3046F7E7704755
:102940002DE9F04F86B00D469C46DDE910640196F6
:102950000F9B04F04008B8F1000F02D0DFF8188197
:1029600001E0DFF81881CDF8008004F01008B8F11C
:10297000000F01D024F0010404F00108B8F1000FA9
:1029800002D04FF0300801E04FF02008C246002787
:1029900004F00208B8F1000F11D0002A02DA2D2746
:1029A00052420CE004F00408B8F1000F01D02B27CC
:1029B00005E004F00808B8F1000F00D0202700213E
:1029C00042B94FF0300B8846491C0DF1080909F84F
:1029D00008B01DE01AE0E146B9F10A0F08D14FF046
:1029E0000A0BB2FBFBFE0BFB1E28B2FBFBF202E064
:1029F00002F00F08120900BFDDF8009019F808B0C6
:102A00008846491C0DF1080909F808B0002AE2D1EE
:102A1000B14200DD0E469B1B04F01108B8F1000F17
:102A200010D117B1002B00DD5B1E06E0A84203D2D7
:102A30004FF0200880F80080401CB3F10008A3F19B
:102A40000103F3DC27B1A84200D207705B1E401CD3
:102A500004F01008B8F1000F0AD104E0A84201D236
:102A600080F800A0401CB3F10008A3F10103F5DCDD
:102A70000DE0000010000020F52C0108E42C0108F6
:102A8000A84203D24FF0300880F80080401CB046C6
:102A9000761E8845F4DC08E0A84205D20DF108084E
:102AA00018F8018080F80080401CB1F10008A1F105
:102AB000010104DDDDF80480B8F1000FECD106E07F
:102AC000A84203D24FF0200880F80080401CB3F1E8
:102AD0000008A3F10103F3DC06B0BDE8F08F014666
:102AE000002009E00B685A1C0A601A7800EB80038A
:102AF00002EB4302A2F130000A681278303A0A2A47
:102B0000F0D370472DE9FF4F89B0804644460A98BC
:102B100008EB0006464504D24FF0FF36A6EB08004E
:102B20000A906FE10B980078252806D0B44202D2B3
:102B30000B9800782070641C61E1002526E00B985A
:102B4000401C0B900B9800782D2802D145F0100501
:102B50001CE00B9800782B2802D145F0040515E005
:102B60000B980078202802D145F008050EE00B985C
:102B70000078232802D145F0200507E00B98007863
:102B8000302802D145F0010500E000E0D7E700BFA2
:102B90004FF0FF370B98007830380A2804D20BA882
:102BA000FFF79DFF07460EE00B9800782A280AD110
:102BB0000B98401C0B900C9880C80C90002F02DAE8
:102BC0007F4245F010054FF0FF390B9800782E2812
:102BD0001CD10B98401C0B900B98007830380A28B9
:102BE00004D20BA8FFF77BFF81460AE00B98007820
:102BF0002A2806D10B98401C0B900C9850F8049B87
:102C00000C90B9F1000F01DA4FF000090020049098
:102C10000B980078682803D00B9800786C2805D1B1
:102C20000B98007804900B98401C0B900A2005909C
:102C30000B9800786F2875D00CDC632813D004DC67
:102C4000252870D058286FD18DE064286DD0692870
:102C5000F9D18FE070286AD0732825D0752878D0F4
:102C60007828F0D182E005F0100040B904E0B442C9
:102C700001D220202070641C781E071EF7DC0C98FF
:102C800010F8041B0C90C8B20790B44201D2079808
:102C90002070641C04E0B44201D220202070641C27
:102CA000781E071EF7DCAAE00C98006806900C98C6
:102CB000001D0C90069808B9E6A006900698FFF74C
:102CC000A4FD8346B9F1000F02DDCB4500DDCB4604
:102CD00005F0100048B904E0B44201D22020207071
:102CE000641C38467F1E5845F6DC002008900BE037
:102CF000B44202D2069800782070641C0698401CEA
:102D000006900898401C089008985845F0DB04E0AD
:102D1000B44201D220202070641C38467F1E5845E2
:102D2000F6DC6CE01CE015E028E022E0FFE7781C10
:102D300010B9082745F00105CDE9007902950C98F6
:102D400004C8102331460C902046FFF7F9FD0446D5
:102D500055E012E0B44201D225202070641C4EE000
:102D6000082005901DE045F0400500BF10200590AB
:102D700017E000BF45F0020500BF12E0B44201D2E7
:102D800025202070641C0B98007830B1B44202D228
:102D90000B9800782070641C02E00B98401E0B908A
:102DA0002DE000BF04986C2807D10C9850F804ABB4
:102DB0000C9005F00200B8B116E0049868280BD119
:102DC0000C9830F8041B1FFA81FA0C9005F00200F1
:102DD00050B10FFA8AFA07E00C9850F804AB0C9047
:102DE00005F0020000B100BFCDE90079029552461E
:102DF00031462046059BFFF7A3FD044600BF0B9814
:102E0000401C0B900B98007800287FF48BAE0A983A
:102E100038B1B44202D20020207002E0002006F84F
:102E2000010CA4EB08000DB0BDE8F08F0FB438B56D
:102E300005A800907F218948009B049AFFF762FE55
:102E400004467F2C00D97F248548006818B9834840
:102E5000FFF775FD15E082480068058B8048006823
:102E6000008B40F040007E490968088323467B4A76
:102E700000217B480068FDF789FB794800680583DD
:102E800000BF0020009038BC5DF814FB08B575A0A9
:102E9000FFF7CCFF76A0FFF7C9FF7EA00123002239
:102EA000042100907EA0FFF7C1FF85A0FFF7BEFFC1
:102EB00008BD0FB4F8B504460D4609A80090294690
:102EC0002046009B089AFFF71DFE06460020009052
:102ED0003046F8BC5DF814FB37B505460C46224673
:102EE0004FF0FF312846029BFFF70CFE3EBD0FB4AA
:102EF00038B5044606A800902046009A0599FFF7C9
:102F0000EBFF054600200090284638BC5DF814FB16
:102F100053480068704770B5054651480668284612
:102F2000FDF7BCF9044664B14D48006818B14C483F
:102F30000068FDF7CCFA43212046FDF773FA4848B4
:102F40000460304670BD70B5044604B970BD444895
:102F5000006818B92046FFF7F2FC19E04048006805
:102F6000058B3F480068008B40F040003C490968F1
:102F700008832046FFF749FC0646334622460021D7
:102F800037480068FDF702FB35480068058300BF3D
:102F900000BFDBE72DE9F04780460C460426761E8D
:102FA000A01920EA060408EB0600B04300EB040970
:102FB000484600F089F9054665B1601E284008B909
:102FC0002F1904E0601E2844611E20EA010747F81B
:102FD000045C3D462846BDE8F08770B5044654F8C9
:102FE000045C284600F075FA70BD014609B900205E
:102FF0007047C8B220B1C8B23C4A105C401CF7E729
:1030000001F47F4028B13948C1F30722805C0930C0
:10301000EEE701F47F0028B13448C1F30742805C39
:103020001130E5E7314800EB116000781930DFE737
:103030002F4908607047F8B504460D461646002033
:1030400000902B48006818B933462A46214651E0C3
:1030500059E00000284E554C4C2900004405002042
:10306000140000200A205C207C202F0A00000000B1
:103070002D205254202D202020202054687265617C
:1030800064204F7065726174696E67205379737440
:10309000656D0A004E6F76203236203230313900AD
:1030A000202F207C205C202020202025642E2564D9
:1030B0002E2564206275696C642025730A00000067
:1030C0002032303036202D203230313920436F709D
:1030D0007972696768742062792072742D746872DD
:1030E000656164207465616D0A000000E42B0108CD
:1030F0001800002007A0FFF799FE00BF9DF8000010
:103100000028FBD005E03246294620460F4B1B68BD
:103110009847F8BD28257329206173736572746917
:103120006F6E206661696C65642061742066756EDF
:103130006374696F6E3A25732C206C696E65206E1E
:10314000756D6265723A2564200A0000180000203F
:10315000F04908607047F0490860704770B5044650
:10316000EE480068844204D2A122ED49EDA0FFF7A9
:1031700062FFF4480068844204D3A222E849F2A026
:10318000FFF759FF608820B1A322E549F9A0FFF7B6
:1031900052FFE249606809684518AC4215D068885A
:1031A00098B9E848006885420FD0F6480068A84200
:1031B00001D1F448046068686060D8480068201A4B
:1031C000D64A6968126811448860D449A0680968C1
:1031D0004618A64211D0708878B9EA480068A04223
:1031E00001D1E848066060687060CC480068301A19
:1031F000CA4A616812681144886070BD2DE9F047C1
:1032000005460E46E81C20F0030726F0030800BF21
:1032100007F05EF98146FFF71FFA40B1DA49DBA0FB
:10322000FFF704FED222D849E2A0FFF704FF484688
:1032300007F052F900BFB8F1180F09D9A8F118002A
:10324000B84205D3A8EB07001838DB49086006E050
:1032500032462946D9A0FFF7E9FDBDE8F087AF481F
:10326000076000BF00BF04684FF4F5502080D248CB
:1032700000680C3060600020A0606080A749606832
:1032800009680844AF4908604FF4F55009680880A0
:103290000120AC4909684880C74800680C30A9493A
:1032A00009684860C44800680C30A649096888600D
:1032B00000230122D0A1D248FDF7DAFB974800682D
:1032C000B049086000BFC8E72DE9F047054615B9C9
:1032D0000020BDE8F08700BF07F0FAF88146FFF74D
:1032E000BBF948B1C749A9A0FFF7A0FD4FF48C7204
:1032F000C449B0A0FFF79FFE484607F0EDF800BFB5
:10330000E81C20F00300A84201D000BF01E000BF8C
:1033100000BFE81C20F00305A7480068854203D9D8
:1033200000BF00BF0020D4E70C2D00D20C254FF0C9
:10333000FF31B348FDF750FC9248006877490968AF
:10334000461ABBE0754800688419608800287BD164
:1033500006F10C006168081AA84275D306F10C004A
:103360006168091A05F11800814230D306F10C009A
:1033700000EB05086948006800EB08074FF4F550BA
:1033800038800020788060687860BE60C4F804806F
:10339000012060808848796800680C30814205D03F
:1033A0005E49786809680844C0F808809648016852
:1033B00005F10C00084494490860944800680968C5
:1033C000884219D2904800689049086014E00120B2
:1033D0006080524960680968611A401A8A49096820
:1033E000084489490860894800680968884203D20E
:1033F00085480068854908604FF4F5502080614891
:103400000068844224D107E05E4800684068434970
:10341000096808445B4908605A480068408828B138
:1034200058480068474909688842EDD15548006806
:103430004449096888420BD052480068408838B136
:103440004FF4C1726F4900E034E071A0FFF7F3FD63
:103450006B48FDF758FC04F10C0028443949096811
:10346000884205D94FF4C37266497348FFF7E3FDFC
:1034700004F0030028B140F2871262496F48FFF759
:10348000DAFD04F0030028B14FF4C4725D496CA06A
:10349000FFF7D1FD00BF00BF00BF1E48006828B184
:1034A000294604F10C001B4A1268904700BF04F142
:1034B0000C000EE719480068304446683E48006832
:1034C000401BB0423FF63EAF4D48FDF71CFC0020CC
:1034D000FFE670B5054605B970BD00BF06F0F8FF00
:1034E0000646FFF7B9F848B1614928A0FFF79EFCEE
:1034F00040F229225E492FA0FFF79DFD304606F0DD
:10350000EBFF00BF05F0030018B140F22B22584931
:10351000B0E0B2E01C0000202000002024000020C9
:10352000062D01082872745F75696E74385F742007
:103530002A296D656D203E3D20686561705F70745D
:1035400072000000280000202872745F75696E7494
:10355000385F74202A296D656D203C202872745FC5
:1035600075696E74385F74202A29686561705F65BB
:103570006E6400006D656D2D3E75736564203D3D84
:10358000203000002C000020112D010846756E63CC
:1035900074696F6E5B25735D207368616C6C206E5F
:1035A0006F74206265207573656420696E204953CD
:1035B000520A000030000000300000206D656D20D0
:1035C000696E69742C206572726F7220626567691A
:1035D0006E206164647265737320307825782C20C6
:1035E000616E6420656E642061646472657373202B
:1035F000307825780A0000006865617000000000DE
:10360000C4050020252D01083400002038000020CA
:1036100028286C66726565203D3D20686561705F95
:10362000656E6429207C7C2028216C667265652D7E
:103630003E75736564292900144701086C4601082A
:1036400028282872745F75626173655F74296D65DF
:103650006D292026202852545F414C49474E5F5324
:10366000495A45202D20312929203D3D2030000098
:103670003A2D01089EA0FFF7DEFCA94800688542AC
:1036800003D3A8480068854205D34FF40B72A649BE
:10369000A648FFF7D0FC00BFA548006818B128462F
:1036A000A3490968884700BF9D480068854203D345
:1036B0009C480068854202D300BF00BF0CE7A5F11B
:1036C0000C0400BF00BF4FF0FF319A48FDF784FAA9
:1036D000608818B12088B0F5F55F08D096A0FFF794
:1036E000A5FB2388628821469AA0FFF79FFB60888C
:1036F00028B940F24B228C49A2A0FFF79CFC2088FD
:10370000B0F5F55F05D04FF413728749A0A0FFF71D
:1037100092FC002060804FF4F5502080A3480068A0
:10372000844201D2A14804607D4960680968611A39
:10373000401A9F490968081A9D4908602046FFF70A
:103740000DFD7C48FDF7DFFA00BFC5E62DE9F84F17
:1037500006460C4600BF06F0BBFE0090FEF77CFF5D
:1037600058B19449AFF2DC10FFF760FB4FF4D6720A
:103770009049AFF2C010FFF75EFC009806F0ACFE77
:1037800000BFE01C20F003048B480068844204D989
:1037900000BF00BF0020BDE8F88F24B93046FFF716
:1037A00098FE0020F7E71EB92046FFF78DFDF2E7EF
:1037B0004FF0FF315F48FDF70FFA59480068864225
:1037C00003D358480068864204D35A48FDF79BFA51
:1037D0003046E0E7A6F10C0851480068A8EB000964
:1037E000D8F80400A0EB0900A0F10C07A74204D10F
:1037F0005048FDF788FA3046CDE704F11800B8428A
:103800002DD2381B6A490968081A6949086009F10C
:103810000C0000EB040A4248006800EB0A054FF474
:10382000F550288000206880D8F804006860C5F84A
:103830000890C8F804A06048696800680C308142AC
:1038400005D03749686809680844C0F808A02846C8
:10385000FFF784FC3748FDF756FA30469BE73548BA
:10386000FDF751FA2046FFF72FFD8346BBF1000F0D
:103870000CD0A74201D2384600E02046024631462D
:103880005846FEF750FF3046FFF723FE584682E7C2
:1038900070B504460D4604FB05F0FFF715FD06461E
:1038A0002EB104FB05F200213046FEF718FF30462A
:1038B00070BD10B1404B1B68036011B13C4B1B68DD
:1038C0000B6012B13D4B1B681360704710B53A484E
:1038D00001683BA0FFF7AAFA354801683DA0FFF751
:1038E000A5FA3648016840A0FFF7A0FA10BD000015
:1038F00028282872745F75626173655F7429726D20
:10390000656D292026202852545F414C49474E5F5F
:1039100053495A45202D20312929203D3D20300092
:1039200024000020280000203A2D0108B846010894
:1039300020000020C4050020746F20667265652099
:103940006120626164206461746120626C6F636BEA
:103950003A0A00006D656D3A203078253038782CB1
:10396000207573656420666C61673A2025642C209D
:103970006D6167696320636F64653A203078253034
:1039800034780A006D656D2D3E7573656400000026
:103990006D656D2D3E6D61676963203D3D20484535
:1039A00041505F4D41474943000000002C0000207A
:1039B000340000202F2D01083000002038000020A6
:1039C000746F74616C206D656D6F72793A20256437
:1039D0000A00000075736564206D656D6F72792053
:1039E0003A2025640A0000006D6178696D756D20CC
:1039F000616C6C6F6361746564206D656D6F727965
:103A00003A2025640A0000000268516002680A60DA
:103A1000016048607047D0E900215160D0E9001290
:103A20001160406000607047B14908607047B1495B
:103A300008607047B04908607047B0490860704737
:103A4000AF49086070477047024600210AE0AD4860
:103A500000EB01100078904203D1AA4800EB01105E
:103A60007047491C0A29F2DB0020F9E72DE9F047ED
:103A700004460E46904600273046FFF7E5FF054610
:103A800025B9FB22A049A1A0FFF7D5FA00F0DFFA83
:103A90006F680AE0A7F10C09A14505D140F20912AF
:103AA0009949A0A0FFF7C7FA3F68281D8742F1D1C6
:103AB00000F0DBFA46F080002072082241462046E2
:103AC000FEF7E1FE00BF8A48006818B12046884929
:103AD0000968884700BF06F0FBFC824604F10C0130
:103AE000281DFFF791FF504606F0F6FCBDE8F08771
:103AF00070B504462CB940F235128E498EA0FFF7FE
:103B00009AFA00BF7B48006818B1204679490968D5
:103B1000884700BF0020207206F0DAFC054604F159
:103B20000C00FFF778FF284606F0D6FC70BD2DE9A3
:103B3000F04706460F4600BF06F0CAFC8146FEF776
:103B40008BFD48B1814982A0FFF770F94FF4AC7248
:103B50007E4989A0FFF76FFA484606F0BDFC00BF1A
:103B60003046FFF771FF05462DB94FF4AE72774925
:103B700066A0FFF760FAE868FFF7A6FB044614B9F1
:103B80000020BDE8F08700212046EA68FEF7A7FD87
:103B9000267200206072082239462046FEF773FE26
:103BA00000BF5348006818B120465149096888474A
:103BB00000BF06F08DFC804604F10C01281DFFF7C4
:103BC00023FF404606F088FC2046DAE770B504463D
:103BD0002CB94FF4CB72694957A0FFF72CFA207A21
:103BE00000F0800028B140F29712644964A0FFF70A
:103BF00022FA00BF3F48006818B120463D490968D5
:103C0000884700BF0020207206F062FC054604F1E0
:103C10000C00FFF700FF284606F05EFC2046FFF789
:103C200058FC70BD10B504462CB94FF4DC725F49E6
:103C300041A0FFF700FA207A00F0800008B10120CF
:103C400010BD0020FCE710B504462CB940F2CB12A1
:103C5000574939A0FFF7EFF9207A20F0800010BD16
:103C60002DE9F04705460E464FF0000800270024D6
:103C70000DB10C2E02DD0020BDE8F08700BF06F07C
:103C800027FC8146FEF7E8FC48B14A4930A0FFF71F
:103C9000CDF840F2E712474937A0FFF7CCF9484684
:103CA00006F01AFC00BF00F0D2F954B93046FFF715
:103CB000CBFE04462CB94FF4F8723E4913A0FFF72F
:103CC000BAF967680CE0A7F10C08082229464046BB
:103CD000FEF7F3FD18B900F0C8F94046CCE73F689D
:103CE000201D8742EFD100F0C0F90020C4E700009A
:103CF000DC000020E0000020E4000020E8000020BC
:103D0000EC0000203C000020422D0108696E666F27
:103D1000726D6174696F6E20213D2052545F4E5563
:103D20004C4C00006F626A20213D206F626A65631F
:103D300074000000512D01086F626A6563742021D0
:103D40003D2052545F4E554C4C000000622D01083E
:103D500046756E6374696F6E5B25735D2073686171
:103D60006C6C206E6F7420626520757365642069C9
:103D70006E204953520A000030000000752D0108E2
:103D800021286F626A6563742D3E74797065202600
:103D90002052545F4F626A6563745F436C61737352
:103DA0005F5374617469632900000000862D010867
:103DB000A02D0108B32D0108BE490860704770B5F9
:103DC000044624B95322BC49BCA0FFF734F9A06AC9
:103DD0000078232809D1A16AE069884205D9D4E98D
:103DE0000A010844E16988420CD22146B8A0FFF7D5
:103DF0001DF809F04BFA06F06BFB054600BF002DDD
:103E0000FDD108E0A06A2030E169814203D8214653
:103E1000B6A0FFF70BF870BD70B50446C148006846
:103E2000FFF7E3F8451EC04850F83500A0F114062E
:103E30002560304670BD10B50020BC49088000BF29
:103E400000BF002405E0B84901EBC40000F02FF9E1
:103E5000641C202CF7DB0020B2490860B44800F055
:103E600026F910BD70B504462CB940F21532B1499F
:103E700092A0FFF7E0F806F02BFB054600BF00BF5D
:103E800004F11400D0E900215160D0E90012116062
:103E90004060006000BF94F83510A34A02EBC100F7
:103EA0000168814201D1012100E0002129B19D4832
:103EB000A16B006888439B490860284606F00CFB0C
:103EC00070BD38B56846FFF7A7FF04469A480460FE
:103ED0002046FFF7C7FF032084F8340004F11C00DC
:103EE00006F02BFB38BD70B504462CB94FF42D728B
:103EF000924972A0FFF79FF806F0EAFA05468E484D
:103F00000068844208D194F8340020F00F0040F09B
:103F1000030084F834001DE014F8340F20F00F0083
:103F200040F0010020706278343C7F4B03EBC2000C
:103F300004F114014268116042684A6041600860FF
:103F400000BF00BF00BF7749A06B096808437549EF
:103F5000086000BF284606F0BFFA70BDF8B506F04D
:103F6000B7FA06467148008800286BD16D48006892
:103F7000002866D000276846FFF74EFF04466E48CB
:103F8000006890F8340000F00F0003280AD16A4856
:103F9000006890F835000099884202D266480468AB
:103FA00000E0012764480068844239D064490098E1
:103FB000087061480568046000BF3E48006820B191
:103FC000214628463B4A1268904700BF17B1284651
:103FD000FFF789FF2046FFF745FF94F8340020F0F3
:103FE0000F0040F0030084F8340000BF00BF2046FB
:103FF000FFF7E5FE5348007848B904F11C0105F1CC
:104000001C0006F06CFA304606F066FA1EE000BFAF
:1040100000BF04F11C0105F11C0006F060FA0FE07E
:1040200045480068FFF71EFF4348006890F83400D9
:1040300020F00F0040F003003F49096881F8340088
:1040400000BF00BF304606F047FA00BFF8BD10B50C
:1040500006F03EFA044635480088401C00B2334959
:104060000880204606F038FA10BD10B506F030FA88
:1040700004462E480088401E00B22C49088008469D
:10408000B0F9000000280ADC00200880204606F075
:1040900023FA2948006828B1FFF760FF02E02046B4
:1040A00006F01AFA10BD2148008880B270474060BF
:1040B0000060704708010020C22D01087468726515
:1040C000616420213D2052545F4E554C4C0000004D
:1040D0007468726561643A257320737461636B2040
:1040E0006F766572666C6F770A0000007761726E9A
:1040F000696E673A20257320737461636B2069735E
:1041000020636C6F736520746F20656E64206F662A
:1041100020737461636B20616464726573732E0A2B
:1041200000000000F0000020E4050020F400002062
:1041300000010020F62D0108F8000020DC2D010808
:10414000FC0000200C0000200268516002680A6038
:10415000016048607047D0E900215160D0E9001249
:104160001160406000607047F84908607047F84986
:1041700008607047F74908607047F7480068704763
:1041800070B5FFF7FAFF044606F0A2F9054620468F
:10419000FFF768FE042084F8340004F14C0000F0BE
:1041A00033FC2046FFF73EFD012805D1A06F18B96A
:1041B0002046FFF79DFC04E004F11401E748FFF7F7
:1041C000C3FF284606F088F9FFF7C8FE70BD70B53A
:1041D00005462C462CB94FF43D72E149E1A0FEF7AB
:1041E0002AFF94F8340000F00F00022805D040F2B6
:1041F000F522DB49E0A0FEF71EFF2046FFF723FD76
:10420000012805D040F2F622D549EA48FEF713FF0F
:104210006FF00100206304F11400FFF79CFF2046BB
:10422000FFF761FEFFF79AFE70BD2DE9FC5F0446C3
:104230008B4616461F46DDE90C9ADDE90E5804F15F
:1042400014004060006000BF26626762C4F82890D6
:10425000C4F82CA02321D4E90A02FEF740FAD4E9DD
:104260000A3C63441A1FAFF2E703D4E9080105F0E2
:104270003FFEE061202D04DB9522CF49CFA0FEF761
:10428000DAFE3034A57165710020A060C4F8148096
:10429000C4F8188020602071A064E064303C009075
:1042A0002346AFF2D5022146019004F14C0000F004
:1042B0008EFB00BFA748006818B12046A5490968D1
:1042C000884700BF0020BDE8FC9F2DE9FF5F044642
:1042D0000D46174698460EAE96E8400E24B9F122D8
:1042E000BF49A0A0FEF7A7FE26B9F222BC49BDA097
:1042F000FEF7A1FE2A4601212046FFF7B7FB434601
:104300003A46294620468DE8400EFFF78EFF04B05E
:10431000BDE8F09F70B504462CB940F2C722B749FA
:1043200090A0FEF788FE2046FFF78DFC012805D0FF
:104330004FF43272B1499F48FEF77DFE00BF00BFC7
:1043400094F8340000F00F00022804D000BF00BF32
:104350004FF0FF3070BD06F0BBF8054604F11400C5
:10436000FFF7F9FE04F14C0000F05BFC284606F074
:10437000B3F82046FFF7B7FD00BF7548006818B1D5
:10438000204673490968884700BF0020E2E710B55E
:1043900004462CB940F22312994972A0FEF74BFE55
:1043A00094F8340000F00F0028B14FF49272944951
:1043B00094A0FEF740FE2046FFF745FC012805D0FB
:1043C00040F225128E497B48FEF735FE94F8360000
:1043D00084F8350094F8351001208840A06300BFB0
:1043E00000BF022084F834002046FFF793FFFFF758
:1043F000C4FE08B1FFF7B2FD002010BD70B5044641
:104400002CB94FF4A8728D4956A0FEF714FE204631
:10441000FFF719FC012805D040F251128749654881
:10442000FEF709FE2046FFF7FDFB28B94FF4A972FD
:10443000824983A0FEF7FFFD94F8340000F00F00DE
:1044400010B12046FFF70EFD04F14C0000F0DCFA3D
:10445000042084F834002046FFF7E4FB012805D14E
:10446000A06F18B92046FFF743FB0AE006F030F8CA
:10447000054604F114013948FFF766FE284606F0A8
:104480002BF8002070BD2DE9FF5F06460F469046D1
:104490001D46DDE90EAB31460120FFF748FB8146A2
:1044A000B9F1000F03D1002004B0BDE8F09F284609
:1044B000FEF70AFF044624B94846FFF787FB0020B1
:1044C000F2E743463A46314648468DE8300CFFF75E
:1044D000ACFE4846E8E770B504462CB940F2B3128A
:1044E000634920A0FEF7A7FD2046FFF7ACFB01289B
:1044F00005D04FF4DA725E492E48FEF79CFD204647
:10450000FFF790FB28B140F2B512594959A0FEF7C8
:1045100092FD94F8340000F00F0010B12046FFF730
:10452000A1FC04F14C0000F06FFA042084F8340080
:1045300005F0CEFF054604F114010848FFF704FE1C
:10454000284605F0C9FF002070BD00000C010020C6
:104550001001002014010020F800002000010020BC
:10456000A82E010874687265616420213D205254B0
:104570005F4E554C4C000000287468726561642DD4
:104580003E7374617420262052545F544852454152
:10459000445F535441545F4D41534B29203D3D20CE
:1045A00052545F5448524541445F53555350454E11
:1045B0004400000058470108102E01087072696F0E
:1045C00072697479203C2052545F544852454144EA
:1045D0005F5052494F524954595F4D4158000000B5
:1045E000202E0108737461636B5F737461727420B1
:1045F000213D2052545F4E554C4C0000972E01082F
:104600002F2E0108287468726561642D3E737461F1
:104610007420262052545F5448524541445F5354FD
:1046200041545F4D41534B29203D3D2052545F542E
:1046300048524541445F494E49540000412E01080B
:1046400072745F6F626A6563745F69735F737973B5
:1046500074656D6F626A656374282872745F6F6237
:104660006A6563745F742974687265616429000007
:10467000522E010872745F6F626A6563745F6973BA
:104680005F73797374656D6F626A656374282872ED
:10469000745F6F626A6563745F74297468726561C0
:1046A0006429203D3D2052545F46414C5345000053
:1046B00010B5FFF753FC002010BD70B5044634B9A7
:1046C00040F297228549AFF26410FEF7B4FC204611
:1046D000FFF7B9FA012805D04FF426727F498048C8
:1046E000FEF7A9FC00BF00BF94F8340000F00F05EE
:1046F000012D06D0032D04D000BF00BF4FF0FF30C6
:1047000070BD05F0E5FE0646032D09D1FFF735FD26
:10471000A04205D040F2A922704972A0FEF78BFC9E
:104720002046FFF79FFB94F8340020F00F0040F084
:10473000020084F8340004F14C0000F072FA3046B4
:1047400005F0CAFE00BF6E48006818B120466C49EB
:104750000968884700BF0020D2E731B5FFF70DFD9B
:10476000044634B94FF4F7726649AFF20820FEF7F9
:1047700062FC2046FFF767FA012805D040F2EF12ED
:1047800060495748FEF757FC05F0A2FE0546204653
:10479000FFF793FF6A46002104F14C0000F074FA21
:1047A00004F14C0000F0A0F9284605F095FEFFF753
:1047B000D5FB206B801C08B900202063002038BD89
:1047C00010B504462046FFF7C8FF10BD70B504467B
:1047D0002046FBF7DBFC05462846FFF7BEFF70BD11
:1047E0002DE9F04104460E46154634B940F2372211
:1047F0004549AFF29020FEF71EFC2046FFF723FA52
:10480000012805D04FF40E723F493548FEF713FCDE
:104810003EB3012E2AD0022E2CD105F059FE0746B8
:1048200094F8340000F00F0001280ED12046FFF765
:1048300019FB287884F8350094F835100120884059
:10484000A0632046FFF74FFB07E0287884F8350087
:1048500094F8351001208840A063384605F03CFEEE
:1048600009E02046FFF793FDBDE8F0812046FFF701
:1048700032FEF9E700BF00BF0020F5E72DE9F04167
:104880000646FFF77AFC08B1FFF7E1FB0120FFF7CE
:10489000DBF804462CB940F21B321C491CA0FEF781
:1048A000CAFB656810E0A5F10C07082231463846BE
:1048B000FEF703F838B9FFF760FC08B1FFF7D5FB46
:1048C0003846BDE8F0812D68201D8542EBD1FFF709
:1048D00054FC08B1FFF7C9FB0020F2E7852E010860
:1048E00058470108746872656164203D3D20727408
:1048F0005F7468726561645F73656C662829000087
:104900000C010020632E0108732E0108BA2E010845
:10491000696E666F726D6174696F6E20213D205201
:10492000545F4E554C4C00000268516002680A60AA
:10493000016048607047FE4908607047FD490860A3
:1049400070472DE9F04704460E4617469846DDF8B5
:10495000209084F80990607A20F001006072E6618E
:1049600027620020A062C4F82480002506E004F13C
:10497000140101EBC50000F0A5FA6D1C012DF6DB5A
:10498000BDE8F08770B50446204600F09EFA10B1ED
:104990004FF0FF3070BD2068A0F11405A86AF9E758
:1049A00010B50246002001460EE002F1140303EBAD
:1049B000C100D0E900436360D0E900342360406067
:1049C000006000BF481C01460129EEDB10BD2DE947
:1049D000F84304460D4616461F46DDE9088924B90A
:1049E000BA22D549D5A0FEF726FB2A460A21204641
:1049F000FFF73CF843463A4631462046CDF8009052
:104A0000FFF79FFFBDE8F88370B5044624B9CF22B5
:104A1000CF49CAA0FEF70FFB2046FFF714F90A287A
:104A200004D0D022CA49CBA0FEF705FB2046FFF7F1
:104A3000F9F820B9D122C649D5A0FEF7FCFA05F055
:104A400047FD05462046FFF7ABFF284605F044FD2D
:104A50002046FFF74DF8002070BD2DE9F8430446CD
:104A60000E4617469846DDF8209021460A20FFF7AB
:104A70005EF8054615B90020BDE8F88343463A467E
:104A800031462846CDF80090FFF75BFF2846F3E754
:104A900070B504462CB94FF48772C849A7A0FEF739
:104AA000CAFA2046FFF7CFF80A2805D040F20F12C5
:104AB000C249A8A0FEF7BFFA2046FFF7B3F828B115
:104AC0004FF48872BD49BEA0FEF7B5FA05F000FDAF
:104AD00005462046FFF764FF284605F0FDFC20460A
:104AE000FFF774F8002070BD2DE9F84305462DB995
:104AF0004FF49972C04991A0FEF79DFA2846FFF73E
:104B0000A2F80A2805D040F23312BB4991A0FEF763
:104B100092FA05F0DDFC80462846FFF741FF687AEF
:104B200020F001006872404605F0D6FC00BFB34893
:104B3000006818B12846B1490968884700BF6FF07E
:104B40000041686A884205D340F24312AA49ACA0EA
:104B5000FEF771FAFBF7F7FA696A0844A86205F0F4
:104B6000B7FC8046AF4E009600242AE019E05DF8BD
:104B700024201168142202EBC402881A826AAB6AEC
:104B8000D21A00D108E0826AAB6AD21A6FF00043F1
:104B90009A4200D20CE000BF5DF8240000684DF896
:104BA00024005DF8240006EBC40149688842DED188
:104BB00000BF2CB15DF824000830611C4DF82100C5
:104BC000641C002CD2D098480068401C96490860AC
:104BD0000846076805F114010098FFF7A5FE0224B6
:104BE00012E007F0030060B9C4F1010305F11402FB
:104BF00002EBC301C4F101025DF82200FFF794FE4D
:104C000000E003E0BF08641C012CEAD900BF687A09
:104C100040F001006872404605F05EFC0020BDE8EF
:104C2000F88370B504462CB940F2AB127F4943A01B
:104C3000FEF701FA2046FFF706F80A2805D04FF4E0
:104C4000D6727A4943A0FEF7F6F9607A00F00100C7
:104C500010B94FF0FF3070BD00BF7548006818B143
:104C6000204673490968884700BF05F031FC0546B6
:104C70002046FFF795FE284605F02EFC607A20F0CE
:104C8000010060720020E6E770B504460E46154646
:104C90002CB94FF4E772674928A0FEF7CCF92046FB
:104CA000FEF7D1FF0A2805D040F2CF12614929A0B2
:104CB000FEF7C1F94EB1012E04D0022E08D0032E0A
:104CC00010D10AE0606A28600CE02868606209E0A0
:104CD000607A20F00200607204E0607A40F0020026
:104CE000607200BF00BF002070BD70B500BF00BF84
:104CF000FBF729FA054605F0EBFB0646C3E04948F9
:104D00000068A0F11404A06A281A6FF000418842DC
:104D10000CD200BF0648006818B120460449096853
:104D2000884700BF2046FFF73BFE85E0AAE0000071
:104D30002001002024010020C92E010874696D653E
:104D40007220213D2052545F4E554C4C0000000013
:104D5000D72E010872745F6F626A6563745F67655E
:104D6000745F74797065282674696D65722D3E7064
:104D70006172656E7429203D3D2052545F4F626A16
:104D80006563745F436C6173735F54696D65720032
:104D900072745F6F626A6563745F69735F7379735E
:104DA00074656D6F626A656374282674696D6572D7
:104DB0002D3E706172656E7429000000E72E0108B7
:104DC00072745F6F626A6563745F69735F7379732E
:104DD00074656D6F626A656374282674696D6572A7
:104DE0002D3E706172656E7429203D3D2052545FE6
:104DF00046414C5345000000F72E0108E800002012
:104E000074696D65722D3E696E69745F7469636B58
:104E1000203C2052545F5449434B5F4D4158202F52
:104E2000203200001801002028010020062F010870
:104E3000EC000020142F0108D4E907108847FBF785
:104E400082F9054600BF2548006818B1204623496D
:104E50000968884700BF00BF00BF607A00F0020009
:104E600058B1607A00F0010038B1607A20F001009A
:104E700060722046FFF738FE05E0607A20F00100FE
:104E8000607200E005E0164800F01FF800283FF4CB
:104E900036AF00BF304605F01FFB00BF00BF70BD3E
:104EA00010B50F48FFF76EFD10BD10B5002405E0EA
:104EB0000B4901EBC40000F005F8641C002CF7D08E
:104EC00010BD704740600060704701460868884226
:104ED00001D1012070470020FCE7000024010020E0
:104EE000180100201FB500240025611EFA48006843
:104EF000FBF772FEF94B0FCB8DE80F004FF4965184
:104F0000F7A00AF08BFC68460AF0D0FC4FF47A70E8
:104F1000FFF75CFC68460AF01BFD4FF47A70FFF760
:104F200055FC68460AF060FD4FF47A70FFF74EFCBE
:104F3000BDF90610EC48FCF76CFEBDF90810EA4814
:104F4000FCF767FEBDF90A10E748FCF762FEBDF901
:104F50000C10E548FCF75DFEBDF90E10E248FCF7C9
:104F600058FEBDF90610E148FCF753FEBDF90810E4
:104F7000DE48FCF74EFEBDF90A10DC48FCF749FE9E
:104F8000BDF90C10D948FCF744FEBDF90E10D74806
:104F9000FCF73FFED0480068FBF7B5FED448006838
:104FA000FBF7B1FE7CE0002404E04FF47A70FFF7D9
:104FB0000DFC641C3C2CF8DB6D1C3C2D70D10025D5
:104FC00068460AF073FC012803D1CAA0FDF72EFF42
:104FD00006E0BDF90820BDF90610CDA0FDF726FFBB
:104FE0004FF47A70FFF7F2FB68460AF0B1FC012833
:104FF00003D1CFA0FDF71AFF04E0BDF90A10D3A03A
:10500000FDF714FF4FF47A70FFF7E0FB68460AF0F3
:10501000EBFC012803D1D1A0FDF708FF06E0BDF9A4
:105020000E20BDF90C10D4A0FDF700FFBDF906104D
:10503000AD48FCF7EEFDBDF90810AB48FCF7E9FD03
:10504000BDF90A10A848FCF7E4FDBDF90C10A6480C
:10505000FCF7DFFDBDF90E10A348FCF7DAFDBDF942
:105060000610A248FCF7D5FDBDF908109F48FCF7D3
:10507000D0FDBDF90A109D48FCF7CBFDBDF90C1021
:105080009A48FCF7C6FDBDF90E109848FCF7C1FD23
:1050900091480068FBF737FE95480068FBF733FE40
:1050A00081E7B0B00124642112A80BF068FE382219
:1050B0008A49103104A80BF049FE6202B6A104A887
:1050C0000BF04DF984480068FBF71DFE43E04FF0FC
:1050D000FF3181480068FBF77FFD2146B0A0FDF756
:1050E000A5FE4FF0FF322FA97F48FCF79BFD4FF044
:1050F000FF322EA97C48FCF795FD4FF0FF322DA919
:105100007948FCF78FFD4FF0FF322CA97648FCF769
:1051100089FD4FF0FF322BA97348FCF783FDDDE9D1
:105120002C212B98CDE900120290A3A112A8DDE951
:105130002E32FDF7DCFE12A8109004A80BF07BF9CC
:1051400004A80BF090FA04A80BF0B3F9012104A80D
:105150000BF0C9FA641CBAE796B000245F484830E7
:10516000D0E900128068CDE90E1210905B4A5432EB
:10517000D2E900109268CDE90C020B91574A6032D7
:10518000D2E900109268CDE9090208919AA2D2E909
:1051900000109268CDE9060205919AA2D2E90010AA
:1051A0009268CDE9030202910AF080FC98A00423E2
:1051B0000C220021009003200AF00CFF97A002238C
:1051C0000C220321009000200AF004FF95A30C227A
:1051D000032104200AF078FD95A002230C22062169
:1051E000009000200AF0F6FE93A30C220621042072
:1051F0000AF06AFD93A002230C22092100900020EE
:105200000AF0E8FE91A30C22092104200AF05CFDBB
:10521000BFE137480068FBF76FFD00285AD14FF413
:10522000FA7215A93148FCF7FDFC70B915980BF01E
:105230009CFE05460022874B0BF028FE07463A46A7
:105240000B4685A10EA80CF0ADFE4FF4FA7214A91E
:105250002648FCF7E7FC70B914980BF086FE05466B
:1052600000227C4B0BF012FE07463A460B467DA10E
:105270000BA80CF097FE4FF4FA7213A91B48FCF729
:10528000D1FC70B913980BF070FE05460022714BEB
:105290000BF0FCFD07463A460B4674A108A80CF03B
:1052A00081FE4FF4FA7212A91048FCF7BBFC20B93A
:1052B00071A105A8129A0CF075FE4FF4FA7211A9AB
:1052C0000A48FCF7AFFC20B96FA102A8119A0CF0B4
:1052D00069FEE1E0E6E000002C010020282F010833
:1052E0007561727433000000E4060020140700208A
:1052F000300100205B4259485F4D5D47657420686E
:10530000756D6974757265204572726F72210A003D
:10531000CEC2B6C8783130A3BA256420432CCAAABD
:10532000B6C8783130A3BA256420250A00000000F1
:105330005B4259485F4D5D476574206E6F697365C8
:10534000204572726F72210A00000000D4EBD2F483
:10535000783130A3BA25642064620A005B42594860
:105360005F4D5D47657420504D2044617461204558
:1053700072726F72210A0000504D322E35A3BA2589
:10538000642075672F6D332C504D3130A3BA2564DE
:105390002075672F6D330A0075617274320000004A
:1053A0000A0AB7A2CBCDCAFDBEDD20256420B4CE4B
:1053B000A1A30A0A00000000757365723D78696157
:1053C0006F6368756E6D696E6726706177643D7195
:1053D000776572747975696F7026743D25642668E7
:1053E0003D2564266E3D25642670323D2564267079
:1053F00031303D256400000020322E353A2D2D75C8
:10540000672F6D33202031303A2D2D75672F6D3386
:10541000D1EFB3BEBCE0B2E200000000CEC2B6C81D
:10542000000000003A202D2D2E2D2043000000000A
:10543000CAAAB6C8000000003A2D2D2E2D255248CC
:1054400000000000D4EBD2F4000000003A2D2D2E15
:105450002D646200000024403A25302E316620433E
:10546000000000003A25302E316600003A25302E2B
:10547000316664620000000020322E353A256475E2
:10548000672F6D3300000000202031303A2564750D
:10549000672F6D33000000007FA0FDF7C7FC84A0DC
:1054A000FDF7C4FC4FF4FA7094FBF0F100FB1140DF
:1054B00000283DD10AF0ABFDAFF2AC0004230C2272
:1054C0000021009003200AF085FDAFF2B000022316
:1054D0000C220321009000200AF07CFD0EAB0C2270
:1054E000032104200AF0F0FBAFF2BC0002230C22DF
:1054F0000621009000200AF06DFD0BAB0C22062166
:1055000004200AF0E1FB6BA30C22062109200AF01B
:10551000DBFBAFF2D00002230C2209210090002017
:105520000AF058FD08AB0C22092104200AF0CCFB3C
:105530004FF47A7094FBF0F100FB114018BB00248B
:105540000AF065FDAFF2381004230C220021009010
:1055500003200AF03FFD58A30C22032100200AF08B
:10556000B3FB56A30C22032102200AF0C7FB05ABB4
:105570000C22062100200AF0A7FB02AB0C22092115
:1055800000200AF0A1FB0AF055FD0A20FFF71EF9E2
:10559000641C3EE62DE9FC4100240022114648A08F
:1055A000FBF7ABFA484908600846006828B947A0ED
:1055B000FDF73CFC601EBDE8FC814DA0FDF736FC0C
:1055C0000022114655A0FBF798FA564908603E485C
:1055D000006828B954A0FDF729FC4FF0FF30EAE736
:1055E0005BA0FDF723FC00200523654A65A1009020
:1055F0006548FCF771F904462CB164A0FDF716FC70
:105600004FF0FF30D7E700200523664A66A10090DF
:105610006648FCF761F904462CB15CA0FDF706FC76
:105620004FF0FF30C7E70A2018214FF480630022B3
:10563000CDE900105E495FA0FEF725FF07461FB1C8
:105640003846FEF7A4FE00E001240A2018214FF49A
:1056500080630022CDE90010584959A0FEF713FFDE
:1056600005461DB12846FEF792FE00E001240A20FF
:1056700019214FF480630022CDE90010524953A054
:10568000FEF701FF06461EB13046FEF780FE00E041
:10569000012420468FE700000A4C4544CFD4CABEFF
:1056A000C6C1CAFDBEDDCBA2D0C2B3C9B9A6A3A1F3
:1056B0000A00000025524800504D0000D6B50000F9
:1056C00065766E5F73656D002C0100206372656105
:1056D00074652064796E616D69632073656D6170B6
:1056E000686F7265206661696C65642E0A0000004F
:1056F00063726561746520646F6E652E2064796ED7
:10570000616D69632073656D6170686F7265207685
:10571000616C7565203D20302E0A00004C45445FC9
:1057200073656D0030010020637265617465204C03
:1057300045445F64796E616D69632073656D617066
:10574000686F7265206661696C65642E0A000000EE
:1057500063726561746520646F6E652E204C4544EC
:105760005F64796E616D69632073656D6170686FE8
:1057700072652076616C7565203D20302E0A000030
:10578000440700206D627400E4060020696E6974AD
:10579000206D61696C626F78206661696C65642E4A
:1057A0000A000000580700206D6200001407002066
:1057B000A35000084E425F494F540000E54E0008D8
:1057C0004259485F4D000000595100084C454400C3
:1057D00010B501240021872004F0B6FF0FE001215D
:1057E000872004F0C4FF4FF4FA70FEF7EFFF0021AA
:1057F000872004F0BCFF4FF4FA70FEF7E7FF201E8D
:1058000004F10104EBD110BD08B5032002F0A8FBA0
:1058100000BF7C48806940F001007A4988610846F1
:10582000806900F00100009000BF00BF0022114617
:105830006FF00B0002F0A6FB002211466FF00A0089
:1058400002F0A0FB002211466FF0090002F09AFB63
:1058500000221146501F02F095FB00221146101F36
:1058600002F090FB00220F21901E02F08BFB002221
:105870000F21501E02F086FB00BF6348406820F0F5
:10588000E060614948600846406840F00070486048
:1058900000BF08BD30B58FB0002401200590000482
:1058A0000690002007900120099002200C90C1036F
:1058B0000D914FF4E0110E9105A802F0D5FC0446BD
:1058C000032C1BD12822002105A8FCF708FF022089
:1058D00005900120099010200A9002200C900021D0
:1058E0000D914FF460110E9105A802F0BDFC044625
:1058F00024B14B22454946A0FDF79DFB0F200090A7
:1059000002200190002002904FF48060039000205C
:1059100004900221684602F003FF044624B1562297
:105920003A493BA0FDF787FB02F0F9FF4FF47A718B
:10593000B0FBF1F5284602F09BFB042002F038FC96
:1059400000220F21501E02F01DFB0FB030BD08B524
:1059500033490968C908334AB1FBF2F14143009168
:1059600000BF00BF00994A1E00920029F9D108BD6E
:1059700001B5009901EB81014800FFF7E8FF08BD80
:1059800010B50120FFF7F4FF27480068401C2649A6
:1059900008600846006810BD7047704710B5FCF7F6
:1059A0002DFE04F019FAFAF7DCFBFCF73EFE10BD01
:1059B00010B504F0F0F9FFF76DFF1C491C48FDF726
:1059C0001DFCFAF709FC1BA0FDF7A5FA10BDF0B508
:1059D00002464FF0E026B1697469114E3668114FE6
:1059E000B6FBF7F500BF4FF0E026B069814201D960
:1059F0000E1A01E06618361A334605FB02F69E427F
:105A0000F1D8F0BD0010024000000140942F0108C1
:105A1000726574203D3D2048414C5F4F4B000000B3
:105A2000D002002040420F00D802002000000120D8
:105A3000481100207561727431000000704700BF8A
:105A4000FEE700BFFEE700BFFEE77047014601F436
:105A50007F40C2B2C2B900120C2815D2DFE800F0B4
:105A60001406080A0C0E101215161718FE48704777
:105A7000FE48FCE7FE48FAE7FE48F8E7FE48F6E78E
:105A8000FE48F4E7FE48F2E700BF00BF00BF00BFDA
:105A90000020ECE708B500F47F41CAB2002A78D1B3
:105AA00009120C2975D2DFE801F07406152433427F
:105AB00051607071727300BFF249896941F004014D
:105AC000F04A91611146896901F00401009100BF1B
:105AD00000BF5FE000BFEB49896941F00801E94A76
